:0402D700020C008095
:100221001202967F057E001202407F481202C5E548
:0F0231000904FF1202C57F011202967F057E00AD
:10024000E4FDFCC3ED9FEC9E5015E4FBFA0BBB00F4
:0F025000010ABA04F8BBFBF50DBD00010C80E4F8
:01025F00227C
:0502C0001202C5AF0DA4
:1002C5008FA0D2B6C2B0C2B17F017E00120240C279
:0202D500B6224F
:0F0287001202967F04120296E4FF120296E4FF21
:100296008FA0D2B6D2B0C2B17F017E00120240C298
:0202A600B6227E
:1002A8007F381202C57FC87E001202407F0F1202FB
:0802B800C57FC87E0002024070
:1001DC00750A00750B09750800750989750C007591
:1001EC000D807F401202C5AF091202C5E4FF120256
:1001FC0039E50915097002150820811812022BE542
:10020C000B150B7002150AD3E50B9401E50A6480FB
:05021C00948050CE2289
:0300030002026096
:10026000C0E0C0D075D000C002C003C004C005C04B
:1002700006C00712023CD007D006D005D004D00338
:07028000D002D0D0D0E03223
:100006007F401202C57F0E1202967F1F1202967F54
:10001600151202967F1F1202967F1F1202967F0EFE
:100026001202967F0A1202917F891202C5E4FF121C
:1000360002967F481202C5E4FF12028CE4FF120208
:100046008C12028F7F811202C57F011202967F50A9
:100056001202C5E4FF1202967F041202967F021274
:1000660002967F1F1202967F021202877F8112027A
:10007600C57F021202967F581202C57F1F12029197
:100086007F1F1202967F1F1202917F1F12028C7F22
:10009600801202C57F031202967F601202C5E4FF3A
:1000A6001202967F041202967F0E1202967F1F128C
:1000B60002967F0E1202877F901202C57F0402020B
:0100C60096A3
:10015300D288D2AFD2A8C2811202A812000612011D
:10016300DC3081FAD3E50B9401E50A648094804086
:10017300ED050DE50D7002050C7F501202C07F02E4
:100183001202217F401202C5AF091202C5E4FF1219
:100193000239E50D65097004E50C6508701E7F36AC
:1001A3001202C07F041202967F327E001202407F49
:1001B300481202C5AF0D120234020161E5091509A7
:1001C300700215087F481202C07F01120221E50B5D
:0901D300150B7002150A02016708
:030000000200C734
:0C00C700787FE4F6D8FD75810D02010E73
:1000D300020153E493A3F8E493A34003F68001F2EF
:1000E30008DFF48029E493A3F85407240CC8C3332E
:1000F300C4540F4420C8834004F456800146F6DFFD
:10010300E4800B01020408102040809002D7E47EB3
:10011300019360BCA3FF543F30E509541FFEE493F1
:10012300A360010ECF54C025E060A840B8E493A3B8
:10013300FAE493A3F8E493A3C8C582C8CAC583CAE3
:10014300F0A3C8C582C8CAC583CADFE9DEE780BE9B
:0102DB000022
:00000001FF
